:020000040800F2
:10000000C00800203D0200084530000815280008FF
:1000100041300008B11F00084F41000800000000F7
:10002000000000000000000000000000953C0008F7
:100030006D21000800000000E53A0008C33D0008FB
:10004000570200085702000857020008570200082C
:10005000570200085702000857020008570200081C
:10006000570200085702000857020008570200080C
:1000700057020008570200085702000857020008FC
:1000800057020008570200085702000857020008EC
:1000900057020008570200085702000857020008DC
:1000A00057020008570200085702000857020008CC
:1000B00057020008570200085702000857020008BC
:1000C00057020008570200085702000857020008AC
:1000D00057020008253E0008AD3E0008353F0008E5
:1000E00057020008570200085702000800F002F803
:1000F00000F094F80AA090E8000C82448344AAF12E
:100100000107DA4501D100F089F8AFF2090EBAE82B
:100110000F0013F0010F18BFFB1A43F0010318473B
:100120006457000084570000103A24BF78C878C193
:10013000FAD8520724BF30C830C144BF04680C60ED
:10014000704700000023002400250026103A28BF35
:1001500078C1FBD8520728BF30C148BF0B60704739
:100160006E2900F01B84702900F07B85662904F05D
:100170000F87652904F00C87672904F00987612936
:10018000AFF3008003681B0A28BF41F08001692992
:1001900000F02481642900F02181752900F01E817E
:1001A0006F2900F00985782900F04785E92900F0DA
:1001B000A384E42900F0A084F52900F09D84EF29B0
:1001C00000F00685F82900F046850368DB0928BFA2
:1001D00041F08001632900F02484732900F0298410
:1001E000E32901F03580F32901F03A8000207047BF
:1001F0001FB59DE8030000F009FB01F0D1F80400F1
:100200000020002104F002FC401C6060002000215E
:1002100004F012FCE0601FBD10B510BD01F09BF8AA
:100220001146FFF7E5FF04F097F801F079F903B400
:10023000FFF7F2FF03BC01F0A9F90000094880476D
:1002400009480047FEE7FEE7FEE7FEE7FEE7FEE7B8
:10025000FEE7FEE7FEE7FEE704480549054A064BD0
:1002600070470000C53D0008ED000008C0020020F6
:10027000C0080020C0040020C004002070B506465D
:1002800000F0A4FA056806F10B0020F00704B44260
:100290009CBF002070BD2B466A68BAB11068A042AE
:1002A00010D304F1080188423CBF5068586007D35E
:1002B0005168101941601168091B01605860146091
:1002C000101D70BD13465268002AE7D1214628460A
:1002D00000F088FA0028DED170BD70B50446051F15
:1002E00000F074FA0068002C14BF446870BD002C44
:1002F00018BFAC423CBF20466468F8D301680A18B6
:10030000AA4218BF456003D12A680546114401601E
:1003100028684119A1421CBF6C6070BD61686960AA
:1003200021680844286070BD7CB51D4616460C0047
:10033000009001D02044401E074B7B442A4669466A
:100340000190304600F043FB05461CB10020694691
:1003500000F050FB28467CBDC10600000FB41CB560
:10036000084B06AA7B4469460090059800F02FFBD5
:1003700004460020694600F03DFB20461CBC5DF8A9
:1003800014FB00008D06000070B50C460546012ADE
:1003900005D02878800600D5EA69002302E0012311
:1003A00005E05B1C934202D2E05C0028F9D1A86909
:1003B000E618C01AA861286A18442862284600F086
:1003C0005BFA04E0D5E9012114F8010B9047B4422F
:1003D000F8D3284600F066FA70BD00002DE9F04120
:1003E0000646002410687529314616A510D000F085
:1003F0006AFA002802DA404213A507E031688A074A
:1004000001D512A502E0490704D511A5012401E098
:1004100000F062FA00210A2206F1240709E0B0FB8D
:10042000F2FCB0FBF2F302FB1C00303078541846AB
:10043000491C0028F3D123462A463046BDE8F04146
:1004400000F053BA000000002D0000002B00000057
:10045000200000002DE9F05F894604464FF0000AB5
:10046000DFF874B1FB44C0F820A02046E16888475B
:10047000002874D0252806D0D4E901219047206AAD
:10048000401C2062F1E700265F462046E16888476D
:100490002028054607DB312D05D2781910F8200CED
:1004A00008B10643F1E7B00701D526F00406C4F809
:1004B0001CA00027C4F818A02A2D09D0284603F054
:1004C00099FE38B304EB8708303DC8F8185019E09E
:1004D00059F8041B204604EB87029161E1688847C4
:1004E000012F054618D1E069002820DA26F0200601
:1004F0001DE0D8F8180000EB800005EB4000303814
:10050000C8F818002046E1688847054603F072FEE7
:100510000028EED1012F0AD02E2D08D12046E16807
:1005200088477F1C0546022F46F02006C4DBA069E1
:10053000002803DA404246F00106A061F00701D02E
:1005400026F010066C2D0BD0682D09D04C2D39D01B
:100550006A2D35D0742D35D07A2D33D016E038E0A1
:10056000E1682F4620468847B842054609D16C2FDE
:1005700026D04FF48060E168064320468847054650
:1005800004E06C2F1AD04FF4807006430DB3A5F130
:100590004100192802D8203546F400664A4629460B
:1005A000204626604E46FFF7DBFD80B101280BD0C8
:1005B000F61D26F0070000F1080956E74020E4E7A1
:1005C0008020D8E70020D6E706F104094DE7284649
:1005D00052E7206ABDE8F09F4453000070B506461C
:1005E00000F0F8F80468054630460A22002100F0C1
:1005F00043FB2C6070BD401ECAB210F8011F8A4236
:1006000002D00029F9D10020704710B5431E13F81D
:10061000014F002CFBD105E011F8014B002C03F831
:10062000014B03D0521EF7D20021197010BD30B516
:1006300005460B462A4613F8014B12F8010B08B188
:10064000A042F8D01CB1002802D06D1CF1E728466A
:1006500030BD10B5431C02E010F8011B71B18107D9
:10066000FAD14FF0013202C88C1A8C4314EAC2113D
:10067000F9D0C01A0A0603D0C01E10BDC01A10BDA2
:100680000A0401D0801E10BD0902FCD0401E10BD1E
:10069000421E12F8013F002BFBD111F8013B002B49
:1006A00002F8013BF9D17047032A40F2308010F084
:1006B000030C00F0158011F8013BBCF1020F6244FD
:1006C00098BF11F801CB00F8013B38BF11F8013B8E
:1006D000A2F1040298BF00F801CB38BF00F8013B3B
:1006E00011F0030300F00083083AC0F0088051F8CD
:1006F000043B083A51F804CBA0E80810F5E7121DB6
:100700005CBF51F8043B40F8043BAFF30080D207D4
:1007100024BF11F8013B11F801CB48BF11F8012BA0
:1007200024BF00F8013B00F801CB48BF00F8012BC3
:1007300070474FF000020429C0F0128010F0030C43
:1007400000F01B80CCF1040CBCF1020F18BF00F8C4
:10075000012BA8BF20F8022BA1EB0C0100F00DB873
:100760005FEAC17C24BF00F8012B00F8012B48BFD1
:1007700000F8012B70474FF0000200B51346944675
:100780009646203922BFA0E80C50A0E80C50B1F1E9
:100790002001BFF4F7AF090728BFA0E80C5048BFFD
:1007A0000CC05DF804EB890028BF40F8042B08BF9B
:1007B000704748BF20F8022B11F0804F18BF00F897
:1007C000012B704770477047704700000048704722
:1007D00064020020004870475C02002070477047A8
:1007E0007047704738B504460A4600206946AFF3A3
:1007F0000080002808BF38BD02460099204600F05E
:10080000B1FA012038BD012000F09DBDF8B5AFF36D
:100810000080054600200C46102000BF0646A8199F
:10082000A0420DD9324669460020AFF30080070090
:1008300008BF00F088FD0098A04218BF0546C41903
:10084000FFF7C4FF05600746F01D20F007004619BA
:10085000284600F00AF8B44208BFF8BDA21B314692
:100860003868BDE8F84000F07DBA00210160C0E9B9
:10087000011070471020704770B504468569006804
:10088000C10601D5302600E02026C00707D070BD84
:10089000D4E9012130469047206A401C20626D1E39
:1008A000F6D570BD70B5044685690078C00707D1DC
:1008B00070BDD4E9012120209047206A401C2062AD
:1008C0006D1EF6D570BD09684A0501D540B2704766
:1008D000C905FCD500B2704709684A0501D5C0B208
:1008E0007047C905FCD580B270472DE9F0470D4629
:1008F00099469246044600F124080168880604D50A
:10090000E06921F01001216000E00120A84201DD32
:10091000471B00E00027A1697A1902EB0900081AB9
:10092000A0612078C00602D42046FFF7A5FF00266C
:1009300008E0D4E901211AF806009047206A401C1B
:10094000761C20624E45F4DB2078C0060AD520468E
:10095000FFF792FF06E0D4E9012130209047206A9A
:10096000401C2062381EA7F10107F4DC07E0D4E93F
:10097000012118F805009047206A401C2062281EBB
:10098000A5F10105F3DC2046FFF78CFF2078000677
:1009900002D50220BDE8F0870120FBE7116802685C
:1009A000006A530501D508700AE0D30501D5088017
:1009B00006E0130603D5C217C1E9000200E0086093
:1009C0000120704701694A1C02610878704700B530
:1009D0008FB0CDE901310021059105497944CDE978
:1009E000031011466846FFF735FD0FB000BD00004B
:1009F000E5FFFFFF0A6802F8010B0A607047D1E9C2
:100A000000239A4202D2531C0B601070704710B53D
:100A1000436913B1AFF3008001E0FFF7B5FC01209B
:100A200010BD127800F124010A7000224A700122E0
:100A3000EDE711684FF0FF32E9E700002DE9FF5FB5
:100A400015468A460446DFF8AC80F8440027D8E90A
:100A500000103E46CDE9001010E03AF816106A4644
:100A600002A800F050FC411C07D02178890603D56C
:100A7000E269391891420DD80744761C2078800627
:100A800002D5E069B84205DDAE42E6DB3AF8160071
:100A90000028E2D1A069C01BA0612046FFF7ECFE50
:100AA000D8E90010CDE90010002017E03AF818103E
:100AB0006A4602A800F027FCB0F1FF3F81460BD048
:100AC00000250DF1080B05E0D4E901211BF8050014
:100AD00090476D1C4D45F7D308F10100B0428046A8
:100AE000E4DB206A384420622046FFF7DBFEBDE8E5
:100AF000FF9F0000724D00002DE9F0418046D21D9D
:100B000022F007020025D2E90002F52915A614D02B
:100B1000011E72F1000106DA0023D0EB030063EB43
:100B2000020211A608E0D8F800108B0701D50FA625
:100B300002E0490701D50EA601251146002408F15F
:100B4000240704E000F028F930323A55641C50EADA
:100B50000102F7D12B46324621464046BDE8F0411E
:100B6000FFF7C3BE000000002D0000002B000000B6
:100B70002000000030B4002100F1240408E002F05D
:100B80000705D208303542EA4372DB086554491C38
:100B900052EA0305F3D10468002310A2250708D503
:100BA00004F020040C4304D0C46901230CA2641E89
:100BB000C46130BCFFF799BE10B5044621461068E9
:100BC000FFF78AFE02462046BDE810400023D1E729
:100BD000D21D22F00701D1E90023CBE7000000007D
:100BE00030000000F0B40D460188090502D5214C03
:100BF0007C4402E01F4C7C440E34002100F12406AA
:100C000008E002F00F071209E75D42EA03721B09D0
:100C10007754491C52EA0307F3D1027800231207E4
:100C200004D5702D06D009B1022311342246F0BC40
:100C3000FFF75BBE01231034F8E770B504460D469C
:100C400021461068FFF748FE024629462046BDE8C7
:100C500070400023C6E7D21D22F00703D3E900232A
:100C6000C0E70368126843F0200303600823C361F0
:100C70000023B7E7D44B00002DE9F04791460F461B
:100C800080460446002614F8015B2DB100F062F89E
:100C90000068405DC007F6D12B2D02D02D2D18D055
:100CA000641E4A463946204600F0DEFA27B139680C
:100CB000A14201D1C7F800804FF0020471050BD5A5
:100CC0004042002803DDFFF785FD0460A007BDE872
:100CD000F08746F48066E4E70028F8DAFFF77AFD4B
:100CE00004606FF00040F2E710B5203AC0F00B80CE
:100CF000B1E81850203AA0E81850B1E81850A0E820
:100D00001850BFF4F5AF5FEA027C24BFB1E8185079
:100D1000A0E8185044BF18C918C0BDE810405FEAE9
:100D2000827C24BF51F8043B40F8043B08BF704765
:100D3000D20728BF31F8023B48BF11F8012B28BF6A
:100D400020F8023B48BF00F8012B7047004870476D
:100D50005C02002010B500F023FB001D10BD00BF99
:100D6000AD3C0000034640688C46002818BF88420E
:100D70003CBF03464068F8D318681844884207D03F
:100D80000CF1030020F00700001D411A521A014621
:100D9000081D0A60FFF7A1BA30B5B0F10A024FEAA8
:100DA000900E71F100034EEA817EB0EB0E0061EB14
:100DB00091014FEA101E4EEA017E10EB0E0041EB4E
:100DC00011114FEA102E4EEA016E10EB0E0041EBAE
:100DD00011214FEA104E4EEA014E10EB0E0041EB8E
:100DE0001141401841F100014FEAD00040EA417042
:100DF0004FEAD10110EB80054FEA810444EA907478
:100E000044EB01046D1944EB0404521BA3414FF061
:100E1000000348BF0A3200D530BD401C41F100013B
:100E200030BD70472DE9FF4F0C461E464FF0FF378F
:100E30008BB0D2E90001DDF860800A908A46C1F3E8
:100E40000A5505B93D46002108464FF00000BAF1A9
:100E5000000F00F4400005DA00EB80004FF4400181
:100E600001EA50004FEA9059B9F1010F00DDB9468F
:100E70000A9850EA4A000ED044F61050A5F2FF3509
:100E800045432F14B8F1000F1ED07542291E1EDDF8
:100E9000C9F100021CE0B8F1010F4FF0000001D0D1
:100EA000302103E0F24305E02154401CB042FBDB5B
:100EB00030460022002121540B99C1F80880C1E975
:100EC00000200FB0BDE8F08FBD1B6D1CDEE74A4669
:100ED00000DA694206A800F0B5FA06AB93E807000D
:100EE00003AB83E8070050460A9900F0B6FB8DE893
:100EF0000700A0F500501F3800900398002D09DD71
:100F000042F21F014A46084403A90390684600F0D4
:100F100015FE08E0A0F500504A461F3803A90390CB
:100F2000684600F01FFE8DE807000004000C03D0A7
:100F30004FF0FF30410800E01046B8F1000F03D039
:100F40000022009215461EE0751E05D4FFF724FF0F
:100F5000303262556D1EF9D5B3460122084302D0E6
:100F600000227F1C04E02078302801D100227F1E5F
:100F7000002A099786D01DE0112D07DAFFF70CFF34
:100F8000303262556D1C50EA0102F5D1084302D09F
:100F90000098C8B10EE00021681E05E0235C625C89
:100FA00063542254401E491C8142F7DBAB46A81B08
:100FB000401E0990002004F80B000B98099AC0F815
:100FC0000880C0E9002B7CE711264FF0000859E7A4
:100FD0002DE9F04F88460446D21D22F0070191B05A
:100FE000D1E90001CDE90A0103F0F0F802460B98BF
:100FF000C00F01D02D2007E02068810701D52B20EC
:1010000002E0202101EAC000032A099001D0072A4A
:1010100005DB03464146204600F0C6F90BE1207887
:10102000800601D5E06900E00620B8F1650F814631
:1010300006D0B8F1660F18D0B8F1670F70D131E063
:101040000020B9F1110F009001DB112301E009F13B
:1010500001030AAA01A90CA8FFF7E4FEDDE90C7060
:10106000002609F10105834647E001204B46009028
:101070004FF000470AAA01A90CA8FFF7D3FEDDE94B
:101080000DB00C995D46002610B909F101000D184C
:10109000B9EB050003D4C0F1FF3609F10105A5EB5A
:1010A00009002BE0B9F1010F01DA4FF0010900202E
:1010B000B9F1110F0090484601DD112300E003460D
:1010C0000AAA01A90CA8FFF7ADFEDDE90C704D4698
:1010D00000268346207800070AD4AB4500DA5D4637
:1010E00001A8012D04DD411911F8011C302907D098
:1010F0004F4502DA17F1040F04DA012082460FE0AF
:101100006D1EEEE7002F02DCED1B3E4403E0781C71
:10111000A84200DD7D1CB81B00F1010A4FF000471A
:101120002078000703D4AA4501DB4FF0FF3A0021E5
:10113000B7F1004F0DF143088DF8431024D0022081
:101140002B23002F01DA7F422D230A21021EA0F15A
:10115000010000DC5FB197FBF1FC97FBF1F201FBB2
:101160001C7C17460CF1300C08F801CDEEE7A8F115
:10117000010003702188090501D5452100E06521A2
:10118000A0F1010800F8011C09980FA9A1EB0807BC
:10119000FF1D00B10120411901EBEA70A16938443B
:1011A000081A401EA0612078C00602D42046FFF72E
:1011B00063FB099828B1D4E901219047206A401CBB
:1011C00020622078C00622D52046FFF755FB1EE09E
:1011D000002E04DBB34502DD01A8805D00E0302075
:1011E000D4E901219047206A401C2062761CAAF1B4
:1011F00001005FEA000A0AD100F0D2F8C068016875
:10120000405CD4E901219047206A401C2062281EDE
:10121000A5F10105DCDC07E0D4E9012118F8010B98
:101220009047206A401C2062381EA7F10107F3DCBA
:101230002046FFF737FB032011B043E610B54369A2
:1012400013B1AFF3008001E0FFF7F8FB012010BD00
:10125000128800F1240182840022C2840122EDE779
:1012600011684FF0FF32E9E72DE9F05F824615463D
:101270008B4600270AF10104B9460078302801D0D6
:101280009DB113E014F8010B0127782803D05828EA
:1012900001D045B10AE00DB1102D07D1002714F897
:1012A000010B102502E0082500E00A250026B046C3
:1012B0000EE005FB080005FB06F101271FFA80F888
:1012C00001EB1046B6F5803F00D3B94614F8010B88
:1012D000294600F0A9F80028EBDABBF1000F05D091
:1012E0000FB1641E00E05446CBF80040B9F1000F86
:1012F00006D0FFF76FFA02210160C81EBDE8F09F1B
:1013000048EA0640FAE770B516460C460546FFF770
:1013100021FD036893F80101012806D0FF2C0FD8A6
:10132000185D68B101202C7070BDD3F807013246FA
:10133000214603F2071303442846BDE870401847CE
:101340004FF0FF3070BD10B500F0F8F8BDE8104068
:1013500000F0EFB870477546FFF7F8FCAE460500A1
:101360006946534620F00700854618B020B5FEF7C1
:1013700073FFBDE820404FF000064FF000074FF02C
:1013800000084FF0000B21F00701AC46ACE8C009A3
:10139000ACE8C009ACE8C009ACE8C0098D467047AC
:1013A000004870477C0200202DE9F0411F460446AA
:1013B00003260168072A01F4006004DB08B116A5C2
:1013C00005E016A503E008B115A500E015A521F07C
:1013D00010002060A069C01EA0610FB1401EA06176
:1013E0002046FFF749FA4FB1D4E90121384690472A
:1013F000206A401C2062C01C206206E0206AFAE7D6
:10140000D4E9012115F8010B9047761EF8D2204649
:10141000FFF748FABDE8F0814E414E006E616E0064
:10142000494E4600696E66003A2800D2303820F0F6
:101430002002412A01D3A2F13700884201D34FF0A4
:10144000FF3070472DE9F047814616468AB0334891
:1014500078440DC88DE80D0030487844801C03ACFA
:101460000DC884E80D0041F69B300844372190FBFD
:10147000F1F290FBF1F5A5F1800501FB12041B3C94
:1014800002D56442012000E00020DFF890A08046F1
:101490000027FA44AAF1BE0A0DE0E00709D032465F
:1014A000684607EB47010AEB810100F05BFB8DE822
:1014B000070064107F1C002CEFD1184F7F44AC3F15
:1014C00018E0E80714D007EB04100DF1180A90E8B3
:1014D0000E008AE80E00C068F04201D19819089009
:1014E000324606A903A800F03DFB03AB83E80700E2
:1014F0006D10641C002DE4D132466946B8F1000F2E
:1015000003A802D000F01AFB01E000F02BFBC9E9B0
:101510000001C9F808200AB0BDE8F08718440000AF
:1015200010B50446AFF300802046BDE81040FEF73A
:101530007EBE002801D000F029B8704710B5012800
:1015400005D0002103A000F027F8012010BD09A15B
:10155000F8E7000053494752544D454D3A204F7526
:1015600074206F662068656170206D656D6F72799B
:10157000000000003A2048656170206D656D6F7253
:101580007920636F72727570746564000149182068
:10159000ABBEFEE72600020070B505460C460A20E9
:1015A00000E06D1C00F052F835B128780028F8D121
:1015B00002E0641C00F04AF814B120780028F8D149
:1015C000BDE870400A2000F041B800004FF0013C37
:1015D00050F8042B51F8043B9A4221D1A2EB0C03A2
:1015E000934313EACC1317D150F8042B51F8043B62
:1015F0009A4215D1A2EB0C03934313EACC130BD1FF
:1016000050F8042B51F8043B9A4209D1A2EB0C0389
:10161000934313EACC13DBD04FF00000704700BFB8
:10162000D01A01BAB1FA81F101F0180122FA01F0E1
:10163000CB40C1F12001DBB2C0B2C01A2CFA01F3D9
:10164000D11A914311EAC311E6D1704708B5694632
:101650008DF800000320ABBE08BD5FEA400C08BF58
:1016600091F0000F4FEA8C234FEAC12243EA515117
:101670004FEA1C5018BF00F5F0404FEA300018BF89
:1016800041F000415FEA6C5C00F02980BCF1FF3F53
:1016900008BF40F080407047130C06BF12044FF0A3
:1016A000100C4FF0000C130E04BF12020CF1080CCA
:1016B000130F04BF12010CF1040C930F04BF92002E
:1016C0000CF1020CD30F04BF52000CF1010C1146B7
:1016D0004FF00002A0F11F00A0EB0C00704711F0CA
:1016E000004F08BF704731F000413FF4D5AF0B0CFD
:1016F00006BF09044FF0100C4FF0000C0B0E04BF96
:1017000009020CF1080C0B0F04BF09010CF1040CC9
:101710008B0F04BF89000CF1020CCB0F04BF4900F2
:101720000CF1010CCCF12003A0EB0C0022FA03F326
:1017300002FA0CF241EA030100F10100704720F0C7
:101740007F4C80EA030023F07F47ACEB070303F5EF
:101750007C5300F0004003F1FF032DE980494FEA7C
:10176000154B09B44FEA144325EA0B4E24EA03480B
:101770000FF2042606EB132749083E785FEA32028F
:1017800003FB0667C7F5000707FB06F64FEA543769
:101790004FEAD64606F1020607FB066CCCF1005C68
:1017A0004FEA1C472CEA074C07FB06F40CFB06F536
:1017B00004EB15464FEA961634BF00204FF0004068
:1017C0004FEAD13706FB07FC4FEA1C4C0CFB0BF72A
:1017D000D21B03FB0CF761EB07010CFB0EF7B0EB20
:1017E000074072EB17420CFB08F734BFA2EB07422D
:1017F000B2EB074261EB17414FEA0C444FEA910705
:1018000006FB07FC4FEA1C4C0CFB0BF7B0EBC74088
:1018100072EB573203FB0CF734BFA2EBC742B2EBBB
:10182000C74261EB57310CFB0EF7B0EBC70072EB10
:1018300057720CFB08F734BFA2EBC702B2EBC7022A
:1018400061EB5771039F4FEA816141EA921104EB0A
:10185000CC044FEAD1374FEA826206FB07FC42EA2A
:1018600090124FEA80604FEA1C4C0CFB0BF7D21B26
:1018700003FB0CF761EB07010CFB0EF7B0EB074025
:1018800072EB17420CFB08F734BFA2EB0742B2EB36
:10189000074261EB17414FEA8C554FEA910704EB81
:1018A0009C2406FB07FC4FEA1C4C0CFB0BF7B0EB2F
:1018B000C74072EB573203FB0CF734BFA2EBC742B1
:1018C000B2EBC74261EB57310CFB0EF7B0EBC70030
:1018D00072EB57720CFB08F734BFA2EBC702B2EBF6
:1018E000C70261EB577115EB4C254FEA816141EA64
:1018F00092114FEA82624FEAD13742EA901206FB18
:1019000007FC44F100044FEA80604FEA1C4C0CFBDA
:101910000BF7D21B03FB0CF761EB07010CFB0EF777
:10192000B0EB074072EB17420CFB08F734BFA2EB99
:101930000742B2EB074261EB174115EB1C154FEA6A
:10194000813141EA92414FEA823242EA90424FEAC3
:1019500080304FEA0C7644F1000448EA03434EEA33
:101960000B484FF0000EB2EB080C71EB030724BFDD
:10197000624639464EEB0E0E4FF0000B00185241F6
:1019800049414BEB0B0BB2EB080C71EB03077BF1FE
:10199000000B24BF624639464EEB0E0E4FF0000B93
:1019A0000018524149414BEB0B0BB2EB080C71EBA9
:1019B00003077BF1000B24BF624639464EEB0E0E47
:1019C00051EA020718BF46F0010616EB0E7655F1F4
:1019D000000254F1000103D5BDE88901BDE800888B
:1019E000BDE88901BDE80048B619524141EB01014B
:1019F000A3F10103704780807F7E7D7C7B7A7978BC
:101A0000777676757473727171706F6E6E6D6C6CC3
:101A10006B6A6A6968686766666564646363626165
:101A20006160605F5F5E5E5D5D5C5C5B5B5A5A59E6
:101A30005958585757565655555554545353525252
:101A40005251515050504F4F4F4E4E4D4D4D4C4CAA
:101A50004C4B4B4B4A4A4A494949484848474747F3
:101A60004746464645454544444444434343434230
:101A7000424242414141002B26D4770021D01CB57F
:101A80004FEA370703B44FF010004FF010014FF04A
:101A900000000FBCBDE810400BF1010BBBF1010FC2
:101AA00008BF5FEA170722BF12F1010211F101011D
:101AB0004FF0004143F1000300F0004043EA000012
:101AC0007047F9D35708DAE746EA064613F1400FA4
:101AD0004FEA16461FDD13F1200FDFBF16430A46FB
:101AE000002120335B42C8D0C3F1200746EA0646F6
:101AF00002FA07F74FEA164646EA0706C3F120073F
:101B000022FA03F201FA07F721FA03F14FF000037A
:101B100042EA0702B1E746EA020646EA06464FEA0B
:101B2000164646EA0106BCBF46EA0646360C4FF0AA
:101B300000034FF000024FF000019EE72DE9C0487E
:101B4000934630B491E8380007C831EA400C48BFEA
:101B500034EA430C03D5FFF7F2FDFFF78CFFF0BC2E
:101B6000BDE800882DE9C048934630B491E83800BC
:101B700007C810F0804F08BF13F0804F03D100F06A
:101B800005F8FFF778FFF0BCBDE8008820F07F473C
:101B900080EA030023F07F4C07EB0C03A3F57C5392
:101BA00000F00040A3F1FE0392F0000F00F0B380BC
:101BB00095F0000F00F077802DE901494FEA1140C0
:101BC0004FEA144621EA004800FB06FC24EA0647D7
:101BD00008FB06F607FB08F800FB07F718EB0648BA
:101BE0004CEB164C4FEA124B18EB07484FEA1546E0
:101BF0004CEB174022EA0B4E0BFB06FC25EA06478E
:101C00000EFB06F607FB0EFE0BFB07F71EEB064E60
:101C10004CEB164C4FF000061EEB074E4CEB174BEF
:101C200018EB0B0840F1000018EB0E0B58EB000806
:101C300040F100008F1A4FF000013CBFC943661B02
:101C400014BFB5EB040C00213CBFC943F61B4FEA9F
:101C500017444EEA8E0E27EA04454FEA1C4704FB60
:101C600007622CEA074C05FB07F70CFB05F604FBA3
:101C70000CFC16EB074642EB174216EB0C4642EB08
:101C80001C421BEB060658EB0202414146EA9E0647
:101C900001D5BDE80189B619524141EB0101A3F11B
:101CA0000103BDE801894FEA14454FEA114724EAD0
:101CB000054621EA074C05FB07F406FB07F70CFB7A
:101CC00006F105FB0CFC11EB074144EB17444FEA0E
:101CD000124711EB0C4144EB1C4422EA074C05FB74
:101CE00007F206FB07F70CFB06F605FB0CFC16EBF0
:101CF000074642EB174216EB0C4642EB1C456A18AE
:101D000054F1000148BF7047B619524141EB01013F
:101D1000A3F10103704795F0000F37D04FEA11424D
:101D20004FEA144721EA024624EA074C02FB07F176
:101D300006FB07F70CFB06F402FB0CFC14EB074454
:101D400041EB17414FEA154714EB0C4441EB1C41A2
:101D500025EA074C02FB07F506FB07F70CFB06F626
:101D600002FB0CFC16EB074645EB174516EB0C4641
:101D700045EB1C42121951F1000148BF7047B619DA
:101D8000524141EB0101A3F1010370474FEA1445B1
:101D90004FEA114724EA054621EA074C05FB07F103
:101DA00006FB07F70CFB06F24FF0000605FB0CFCE8
:101DB00012EB074241EB174112EB0C4251EB1C4175
:101DC00048BF7047921841EB0101A3F1010370472E
:101DD000CA430260704721B1826842F0010282600A
:101DE00003E0826822F00102826070470146002011
:101DF0008A6802F004020AB1012000E00020704766
:101E00000146C86C80B270470246002013680B4040
:101E10000BB1012000E000207047014600208A68D5
:101E200002F008020AB1012000E000207047000023
:101E300030B502460020002350680F4C20400D7939
:101E40000C6844EA05242043506090680B4C204005
:101E5000D1E902542C434D7944EA45042043906073
:101E6000D06A20F470000C7C641EE4B2234340EA84
:101E70000350D06230BD0000FFFEF0FFFDF7F1FF20
:101E8000F0B504460D4600200021092D11DDE06863
:101E9000A5F10A0606EB4607072606FA07F188436E
:101EA000A5F10A0606EB460603FA06F10843E060D0
:101EB0000CE0206905EB4507072606FA07F1884381
:101EC00005EB450603FA06F108432061072A0FDAFD
:101ED000606B561E06EB86071F2606FA07F188433D
:101EE000561E06EB860605FA06F10843606322E0FB
:101EF0000D2A0FDA206BD61F06EB86071F2606FA7F
:101F000007F18843D61F06EB860605FA06F108435B
:101F1000206310E0E06AA2F10D0606EB86071F269B
:101F200006FA07F18843A2F10D0606EB860605FACC
:101F300006F10843E062F0BD816841F0080181606C
:101F4000704721B1826842F4A002826003E0826897
:101F500022F4A00282607047816841F00401816030
:101F60007047000008B50121042001F0CDFD0121DA
:101F7000084601F0C9FD4FF40040ADF80000102004
:101F80008DF8030003208DF802006946064800F032
:101F900079FA4FF40041044800F051FB0121034855
:101FA00000F0FCFA08BD000000080140000230000B
:101FB00000BFFEE710B500241548006820F00F00B0
:101FC000134908600846006840F00800086004E013
:101FD000601CC4B2012002F05DF90E48006808B12F
:101FE000642CF5DB642C01DB012010BD002404E02F
:101FF000601CC4B2012002F04DF90648006808B91F
:10200000642CF5DB642C01DB0120EEE70020ECE71B
:10201000000C01400081214208B50121082001F097
:1020200073FD0120ADF8000010208DF8030003209F
:102030008DF802006946064800F024FA01210448A0
:1020400000F0FFFA00F072F8FFF7B4FF08BD0000DF
:10205000000C014010B5002404E0601CC4B2012053
:1020600002F018F90D48006808B1642CF5DB002473
:1020700004E0601CC4B2012002F00CF907480068BB
:1020800008B9642CF5DB282002F004F90348006845
:1020900008B1012010BD0020FCE7000000812142B2
:1020A00070B50024002506E06006040EFFF7D2FF9D
:1020B0000443681CC5B2082DF6DB204670BD2DE92F
:1020C000FC4105460E461746984600F02FF8FFF7EC
:1020D00071FF30BB002405E0FFF7E2FF0DF80400BC
:1020E000601CC4B2052CF7DB9DF800009DF80110C0
:1020F00008449DF8021008449DF8031008449DF818
:102100000410884210D19DF8000038709DF801003D
:1021100088F800009DF8020028709DF803003070D8
:1021200002E00120BDE8FC810020FBE710B50C486F
:10213000006820F00F000A4908600846006840F077
:1021400003000860002007490860142002F07CF8B2
:1021500001200549C1F880011E2002F09BF810BD46
:10216000000C014080812142008021427047000024
:1021700010B580210348FEF7DCFA002002490880F0
:1021800010BD0000DC0100204800002070B50546AD
:10219000002400BF00F05CF980B90DA10E48FEF7E5
:1021A00046FA044654B13A212046FEF724FA044682
:1021B00014B1641C204670BD0020FCE7052002F02D
:1021C00043F8281EA5F101018DB2E3D100BFF2E76B
:1021D0004950442C00000000DC01002008B501211A
:1021E000082001F091FC10208DF803000220ADF8CA
:1021F000000003208DF802006946334800F042F9E0
:1022000000220221304800F01EFAFA2002F01CF8E9
:10221000012202212C4800F016FA4FF4FA7002F065
:1022200013F8FFF7A5FF29A12A4801F092FF03E068
:102230004FF4FA7002F008F827A128A000F0BAF8CD
:102240000028F5D127A1234801F083FF03E04FF4D4
:10225000FA7001F0F9FF20A125A000F0ABF80028EA
:10226000F5D127A11B4801F074FF03E04FF4FA7089
:1022700001F0EAFF18A126A000F09CF80028F5D193
:1022800027A1144801F065FF03E04FF4FA7001F054
:10229000DBFF26A127A000F08DF80028F5D12EA1A4
:1022A0000C4801F056FF03E04FF4FA7001F0CCFF48
:1022B0002DA12FA000F07EF80028F5D137A1054808
:1022C00001F047FF08BD0000000C0140312E204105
:1022D000540D0A00003801404F4B000041540D0AD4
:1022E00000000000322E2043574D4F44450D0A0098
:1022F00041542B43574D4F44453D310D0A000000DA
:10230000332E2041542B4357444843500D0A0000BC
:1023100041542B4357444843503D312C310D0A0062
:10232000342E2043574A41500D0A0000474F542095
:102330004950000041542B43574A41503D22717788
:102340006572747975696F70222C22636B783330F3
:1023500031303031220D0A00352E2043495053547C
:102360004152540D0A000000434F4E4E4543540065
:1023700041542B43495053544152543D22544350ED
:10238000222C223138332E3233302E34302E333952
:10239000222C363030320D0A00000000362E204547
:1023A00053503832363620496E6974204F4B0D0A2F
:1023B000000000002DE9F04104460D46C8262046E5
:1023C000FEF747F987B23A4621460D4801F0E5FE8F
:1023D0000FE000F03DF848B929460A48FEF727F912
:1023E00020B1FFF7C5FE0020BDE8F0810A2001F012
:1023F0002BFF301EA6F10101CEB2EAD10120F3E796
:1024000000480040DC01002030B589B004460D468C
:10241000FFF7AEFE2A4608A101A8FDF79FFF0AA11B
:1024200001A8FFF7C7FF20B92A462146074801F057
:10243000B4FE09B030BD000041542B434950534510
:102440004E443D25640D0A003E0000000048004057
:102450000A48008808B901207047084800880849E0
:102460000988884203D1002004490880F4E7034822
:102470000088034908800120EEE7000048000020A2
:102480004A0000202DE9F0410246002500260020E8
:1024900000230024002791F803C00CF00F0591F8E9
:1024A00003C00CF0100CBCF1000F03D091F802C077
:1024B0004CEA050591F800C0BCF1000F31D014685A
:1024C00000202BE04FF0010C0CFA00F3B1F800C033
:1024D0000CEA03069E4220D183004FF00F0C0CFA49
:1024E00003F7BC4305FA03FC4CEA040491F803C06B
:1024F000BCF1280F06D14FF0010C0CFA00FCC2F819
:1025000014C00AE091F803C0BCF1480F05D14FF0A8
:10251000010C0CFA00FCC2F810C0401C0828D1D3F2
:102520001460B1F800C0BCF1FF0F34DD5468002026
:102530002EE000F1080C4FF0010808FA0CF3B1F896
:1025400000C00CEA03069E4221D183004FF00F0C1D
:102550000CFA03F7BC4305FA03FC4CEA040491F8B7
:1025600003C0BCF1280F05D100F1080C08FA0CF8E3
:10257000C2F8148091F803C0BCF1480F07D100F1F4
:10258000080C4FF0010808FA0CF8C2F81080401C43
:102590000828CED35460BDE8F0810000F0B50A46AB
:1025A000002300240021002500F00046B6F1004F72
:1025B00002D11D4EF16901E01B4E7168C0F3034565
:1025C00083B200F44016B6F5401F08D121F07061C7
:1025D000154E766826F07066134F7E6012E000F4A8
:1025E0008016B6F5801F06D1032606FA05F4A1432E
:1025F00041F0706106E0460D360103FA06F6B1437C
:1026000041F0706122B1460D360103FA06F63143FE
:1026100000F00046B6F1004F02D1034EF16101E037
:10262000014E7160F0BD0000000001400246002034
:1026300093680B400BB1012000E00020704741611E
:102640007047016170470AB1016100E04161704764
:1026500008B50121042001F057FA6020ADF8000010
:1026600003208DF8020010208DF80300694602480F
:10267000FFF708FF08BD00000008014010B5002466
:1026800001F0D4FA012001F0B9FA052001F002FEB0
:1026900001F0C4FA012801D1012400E00024002047
:1026A00001F0ACFA052001F0F5FD01F0E1FA204659
:1026B00010BD70B5002401F0B9FA012001F0C8FA8C
:1026C000002517E06006040E012001F097FA0520AE
:1026D00001F0E0FD01F0A2FA012801D1012600E09D
:1026E00000263443002001F089FA052001F0D2FDD4
:1026F000681CC5B2082DE5DB01F0BAFA204670BDB2
:1027000010B5044601F0B4FA012C03D1012001F008
:102710009FFA05E01CB9002001F09AFA00E010BD14
:10272000012001F06BFA052001F0B4FD002001F05A
:1027300065FA052001F0AEFD00BFF0E770B5044674
:10274000002519E004F0800018B1012001F080FAA2
:1027500002E0002001F07CFA6006040E012001F086
:102760004DFA052001F096FD002001F047FA052002
:1027700001F090FD681CC5B2082DE3DBFFF77EFF7A
:1027800070BD10B5012001F063FA012001F036FAA6
:10279000052001F07FFD002001F05AFA052001F02C
:1027A00079FD002001F02AFA10BD10B5002001F0DB
:1027B0004FFA012001F022FA052001F06BFD012003
:1027C00001F046FA052001F065FD10BD70B5044624
:1027D0000723012221460E48FFF752FB01210C4836
:1027E000FFF7AFFB00BF02210948FFF70DFB0028F0
:1027F000F9D002210648FFF7EBFA0548FFF700FB86
:10280000054600210248FFF79CFB284670BD0000EA
:102810000024014000BFFEE708B50121042001F0BB
:1028200073F90220ADF8000010208DF8030003209A
:102830008DF8020069460448FFF724FE0221024891
:10284000FFF7FFFE08BD00000008014000B587B09B
:102850000121042001F058F90121480201F054F946
:102860008020ADF8180003208DF81A0004208DF8A0
:102870001B0006A91648FFF705FE002001908DF801
:10288000080001208DF809004FF46020039000201B
:10289000049001208DF8140001A90E48FFF7C8FA32
:1028A00001210C48FFF797FA0A48FFF745FB00BFE4
:1028B0000848FFF7B2FA0028FAD10648FFF74CFBA8
:1028C00000BF0448FFF792FA0028FAD107B000BD14
:1028D000000801400024014010B50446207B012877
:1028E00002D12068FDF7F9FC002020606060A06044
:1028F000207310BD0246002301230DE002F07F008B
:102900000870D2092AB1087840F080000870491C8C
:1029100001E0184670475B1C042BEFDD4FF0FF30E1
:10292000F8E770B504460E460025206898B90120E6
:1029300020733046FDF7A2FC20602068E0B1002043
:102940006060A66003E00020216848556D1CA06807
:10295000A842F8D810E00220207303E0002021688C
:1029600048556D1CA068A842F8D800206060A06897
:10297000B04201D20020206070BD00002DE9FF5F51
:1029800007460D4690463846FDF763FE86B2284658
:10299000FDF75FFE1FFA80FA4FF00009F01DFDF70A
:1029A0006DFC04461CB9012004B0BDE8F09FF11D88
:1029B0002046FDF7BEFE12A0016821608088A0803D
:1029C000324639462046FDF720FE2846FDF741FEF7
:1029D00083460120002100915B462A46CDE902088A
:1029E000019121460A2000F05FF910B94FF000096B
:1029F00001E04FF001092046FDF76FFC4846D3E7A0
:102A000024637273702F00002DE9FF4F83B082465C
:102A10008B469146159C0025002002900F270190BF
:102A20004846FDF716FE0FFA80F8B9F1000F03D102
:102A3000012007B0BDE8F08F08F10200384487B2EA
:102A4000109808B145F00205129878B145F00405D8
:102A50001298FDF7FEFDC0B202901398FDF7F9FD44
:102A600001460298001D0844384487B2119820B1ED
:102A7000012804D0022808D104E000BF07E045F097
:102A80000C0504E045F0140501E00220D1E700BF89
:102A9000149808B145F02405BAF1000F02D0BBF13B
:102AA000000F01D10320C4E745F0C0055046FDF7F3
:102AB000D0FD06465846FDF7CCFD3044001D384495
:102AC00087B239462046FFF72CFF206808B904205A
:102AD000AFE739462068FDF72CFE10216268501CD4
:102AE000606020688154D4E90023D118781FFFF773
:102AF00001FF00B201900198002804DA2046FFF798
:102B0000EBFE052095E761680198084460600021AC
:102B10006268501C60602068815404216268501C07
:102B20006060206881544D216268501C606020689C
:102B3000815451216268501C606020688154542186
:102B40006268501C6060206881546268501C60603C
:102B50002068815404216268501C606020688154A0
:102B60006168481C6060206845540698010A6268E4
:102B7000501C6060206881540698C1B26268501C85
:102B8000606020688154C8F307216268501C60604F
:102B9000206881546268501C6060206800F80280E0
:102BA000D4E90012881842464946FDF72EFD6068B8
:102BB0004044606005F00400B8B30026139808B9DB
:102BC00038A013901298FDF744FD86B2310A62686E
:102BD000501C6060206881546268501C60602068EE
:102BE0008654D4E90012881832461299FDF70DFD7B
:102BF0006068304460601398FDF72BFD86B2310A9F
:102C00006268501C6060206881546268501C60607B
:102C100020688654D4E90012881832461399FDF7CB
:102C2000F4FC60683044606000BF05F08000C8B10B
:102C30005046FDF70EFD86B2310A6268501C606096
:102C4000206881546268501C606020688654D4E912
:102C50000012881832465146FDF7D7FC60683044B0
:102C6000606000BF05F04000C8B15846FDF7F1FCB8
:102C700086B2310A6268501C6060206881546268C4
:102C8000501C606020688654D4E9001288183246CF
:102C90005946FDF7BAFC60683044606000BF002010
:102CA000C7E60000000000002DE9FF4F83B0834617
:102CB00017469946139C002500260020029001909B
:102CC0008046BBF1000F03D1012007B0BDE8F08FB3
:102CD00000260AE00498805D232803D00498805DD4
:102CE0002B2801D10220F0E7761C0498805D002893
:102CF000F0D148F03008119808B148F0010806EB0F
:102D00000900851C109820B1012804D002280AD19E
:102D100005E000BF09E048F00208AD1C05E048F0FE
:102D20000408AD1C01E00320CFE700BF8FB3387863
:102D3000022821D14FF0000A00BF50460AF1010AD3
:102D4000385C7D28F9D1AAF1030A0AF10700029044
:102D50000298A9EB000AE81CA0EB0A012046FFF745
:102D6000E0FD206808B90420AFE7EA1CA2EB0A01E5
:102D70002068FDF7DEFC19E0691D2046FFF7D1FD54
:102D8000206808B90420A0E7691D2068FDF7D1FC80
:102D90000CE0FFE7691D2046FFF7C3FD206808B976
:102DA000042092E7691D2068FDF7C3FC6168481C98
:102DB0006060206800F80180D4E90002811828468C
:102DC000FFF798FD01900198002804DA2046FFF7EC
:102DD00083FD052079E76168019808446060C6F3C7
:102DE00007216268501C6060206881546268501C32
:102DF000606020688654D4E900128818324604992D
:102E0000FDF703FC606830446060109860B14FEAE1
:102E10001B216268501C6060206881546268501CED
:102E20006060206800F802B0C7B1387802280BD182
:102E3000D4E9001288183946029AFDF735FC61681A
:102E400002980844606009E0D4E9001288184A46F4
:102E50003946FDF729FC606848446060002034E78B
:102E60002DE9FF4107460D4690461E460A9C01206B
:102E70000021CDE90001EB1C0A460FA1CDE90204B7
:102E80000A20FFF711FF88B96168481C606020685C
:102E90004654C5F307216268501C60602068815465
:102EA0006268501C60602068855403E0012004B013
:102EB000BDE8F0810020FAE724647000F0B5044614
:102EC0000D462646012300201060002114E0775CA7
:102ED00007F07F07106807FB03001060705C00F0CC
:102EE000800008B9481CF0BDDB01B3F5001F02D318
:102EF0006FF00100F7E7491CA942E8DB4FF0FF3013
:102F0000F1E72DE9F84380460C4615461E462F2171
:102F100008F10600FDF76FFB07460020009017B987
:102F20000120BDE8F8837F1C6A46042108F10100F6
:102F3000FFF7C4FF2520FDF7A1F92060206808B93C
:102F40000220EEE725212068FDF7F3FB2422394615
:102F50002068FDF7A9FB243700982C383080318891
:102F6000481CFDF78BF92860286820B92068FDF718
:102F7000B4F90320D5E73288511C2868FDF7D9FB46
:102F8000328839462868FDF78FFB0020C9E70146E3
:102F90004878022801D001207047887810B18878DD
:102FA000012801D1C878F7E7FF20F5E70146487806
:102FB000022801D001207047887820B9C8780A28F3
:102FC00001D10020F7E70120F5E70000F8B504463D
:102FD000FF2720780511012D01DB0E2D01DD38467C
:102FE000F8BD032D24D1002000906A460421601C06
:102FF000FFF764FF2044461C0098022803D3207882
:1030000000F0010008B1FF20EAE77078317840EA6B
:103010000120801C0099884201D9FF20E0E706A129
:10302000B01CFDF704FB08B10F2700E0032700E008
:103030002F463846D4E70000246372657100000013
:1030400000BFFEE77047000070B5002100230F228B
:10305000C47804B3154C246804F4E064C4F5E06457
:10306000210AC1F10403CA40447804FA03F18478C8
:103070001440214309010E4C0678A155047804F050
:103080001F050124AC4005786D11AD0005F1E02568
:10309000C5F8004109E0047804F01F050124AC40A4
:1030A000044D0678761145F8264070BD0CED00E021
:1030B00000E400E080E100E002490143024A1160BF
:1030C000704700000000FA050CED00E070B5002428
:1030D00019E004F1B001C8B2002100F06DF900213F
:1030E000084600F069F90021102000F065F900257C
:1030F00005E00121002000F05FF9681CC5B2802DB9
:10310000F7DB601CC4B2082CE3DB70BD08B50121FD
:10311000082000F0F9FC4FF47870ADF800001020A2
:103120008DF8030003208DF8020069464A48FFF736
:10313000A9F94FF47C714848FFF783FA802146488B
:10314000FFF77FFA642001F07FF880214248FFF703
:1031500076FA642001F078F880213F48FFF771FA91
:103160000021AE2000F028F90021084600F024F9E3
:103170000021102000F020F90021402000F01CF96F
:103180000021812000F018F90021CF2000F014F96F
:103190000021A12000F010F90021C82000F00CF956
:1031A0000021A62000F008F90021A82000F004F971
:1031B00000213F2000F000F90021D32000F0FCF8AE
:1031C0000021084600F0F8F80021D52000F0F4F8BE
:1031D0000021802000F0F0F80021D92000F0ECF868
:1031E0000021F12000F0E8F80021DA2000F0E4F8F6
:1031F0000021122000F0E0F80021DB2000F0DCF8D4
:103200000021402000F0D8F80021202000F0D4F860
:103210000021022000F0D0F800218D2000F0CCF831
:103220000021142000F0C8F80021A42000F0C4F808
:103230000021A62000F0C0F80021AF2000F0BCF86B
:103240000021AF2000F0B8F8FFF740FF002108464A
:1032500000F004F808BD0000000C014070B5044601
:103260000D4605F1B001C8B2002100F0A5F810210B
:1032700041EA1410002100F09FF804F00F0141F022
:103280000100002100F098F870BD00002DE9F04128
:1032900007460E46904600250024A8F12000C5B23E
:1032A0007F2F02DD0027B01CC6B231463846FFF73B
:1032B000D5FF002408E004EB05110F4A505C012102
:1032C00000F07AF8601CC4B2082CF4DB701CC1B2A8
:1032D0003846FFF7C3FF002409E004EB051108316D
:1032E000054A505C012100F067F8601CC4B2082C4C
:1032F000F3DBBDE8F0810000BC5100082DE9FF5F61
:10330000074691461D460E9E4FF0000A002433E00A
:10331000281B401EC1B20A2001F038F9B9FBF0F0B9
:103320000A21B0FBF1F201FB1208BAF1000F13D130
:10333000681EA04210DDB8F1000F0BD1B34606EBBA
:10334000DB71491001FB0471C8B220220199FFF71B
:103350009DFF0FE04FF0010AB34606EBDB71491009
:1033600001FB0471C8B208F13001CAB20199FFF73C
:103370008DFF00BF601CC4B2AC42C9DBBDE8FF9F3B
:103380002DE9F04104460F46154600260EE0AA5DE1
:1033900039462046FFF77AFF04F10800C4B2782CC2
:1033A00002DD0024B81CC7B2701CC6B2A85D00289C
:1033B000EDD1BDE8F081000070B504460E462EB197
:1033C0004FF480711A48FFF73CF904E04FF4807124
:1033D0001748FFF734F94FF400711548FFF72FF93C
:1033E000002517E020211248FFF729F904F080009A
:1033F00020B140210E48FFF724F903E040210C489A
:10340000FFF71DF920210A48FFF71BF96006040E9B
:10341000681CC5B2082DE5DB4FF400710448FFF7C6
:1034200010F94FF480710248FFF70BF970BD0000EE
:10343000000C014030B58BB0002007900890099037
:103440000A90012530A033A334A236A10090414850
:1034500000F07FFE07A8002102910391CDE904103E
:1034600000912B0228A201912AA12CA0FFF7CCFAEF
:10347000002842D1089A91B20798FEF7C5FFFA20BA
:10348000FEF784FE0446002C33D02046FFF79EFD55
:1034900002282ED12046FFF77AFD062823D2DFE846
:1034A00000F003090E13181D2BA12A4800F051FE4D
:1034B00000251DE02DA1274800F04BFE18E032A1A9
:1034C000244800F046FE13E038A1224800F041FEF7
:1034D0000EE03EA11F4800F03CFE09E044A11D485B
:1034E00000F037FE04E04DA11A4800F032FE00BFA4
:1034F00000BF07A8FFF7F0F903E04FA1154800F05F
:1035000028FE28460BB030BD3130343835393937D4
:10351000313600003132333435360000353733313F
:10352000383800004F6E654E65745F4465764C69AF
:103530006E6B0D0A50524F49443A2025732C0941B5
:103540005549463A2025732C0944455649443A25A5
:10355000730D0A0000380140546970733A09C1AC18
:10356000BDD3B3C9B9A60D0A000000005741524EA1
:103570003A09C1ACBDD3CAA7B0DCA3BAD0ADD2E979
:10358000B4EDCEF30D0A00005741524E3A09C1ACDA
:10359000BDD3CAA7B0DCA3BAB7C7B7A8B5C4636C1C
:1035A00069656E7469640D0A000000005741524E4F
:1035B0003A09C1ACBDD3CAA7B0DCA3BAB7FECEF1FD
:1035C000C6F7CAA7B0DC0D0A000000005741524EF2
:1035D0003A09C1ACBDD3CAA7B0DCA3BAD3C3BBA759
:1035E000C3FBBBF2C3DCC2EBB4EDCEF30D0A0000AB
:1035F0005741524E3A09C1ACBDD3CAA7B0DCA3BAF9
:10360000B7C7B7A8C1B4BDD328B1C8C8E7746F6B3A
:10361000656EB7C7B7A8290D0A0000004552523A97
:1036200009C1ACBDD3CAA7B0DCA3BACEB4D6AAB484
:10363000EDCEF30D0A0000005741524E3A094D51AC
:1036400054545F5061636B6574436F6E6E65637451
:10365000204661696C65640D0A0000001FB50446D0
:103660000020009001900290039044A000882080E8
:103670000020009001900290039041480378414857
:10368000027841A16846FCF769FE69462046FCF7CE
:10369000FFFF0020009001900290039040480378C3
:1036A0004048027840A16846FCF758FE694620462B
:1036B000FCF7EEFF002000900190029003903F483D
:1036C00002883FA16846FCF749FE69462046FCF7A0
:1036D000DFFF002000900190029003903B483CA146
:1036E00002686846FCF73AFE69462046FCF7D0FFC0
:1036F000002000900190029003903848027838A191
:103700006846FCF72BFE69462046FCF7C1FF002007
:1037100000900190029003903548027835A16846E8
:10372000FCF71CFE69462046FCF7B2FF0020009023
:103730000190029003903348028833A16846FCF759
:103740000DFE69462046FCF7A3FF00200090019083
:1037500002900390304831A102686846FCF7FEFDF4
:1037600069462046FCF794FF30A12046FCF790FF05
:103770002046FCF76EFFC0B204B010BD7B00000015
:1037800029000020280000202254656D70657261B8
:1037900074757265223A25642E25642C00000000A1
:1037A0002B0000202A0000202248756D696469748E
:1037B00079223A25642E25642C0000002C0000207C
:1037C00022536D6F67223A25642C000030000020E0
:1037D000224C69676874223A25642C00340000206A
:1037E000225761726E5F54656D70223A25642C0019
:1037F00035000020225761726E5F48756D69223A6C
:1038000025642C0036000020225761726E5F536DD4
:103810006F67223A25642C0038000020225761721D
:103820006E5F4C69676874223A2564007D00000071
:103830002DE9F0418CB080460020089009900A9054
:103840000B90079006900590002600270024002585
:103850004046FFF7BBFB0646042E25D00F2E2CD189
:1038600005AB07AA06A94046FFF74BFB0746D7B9A9
:10387000BDF8140000903BA14348DDE9062300F0A9
:1038800068FC08AADDE90601FFF778F858B93FA1FE
:103890003D4800F05EFC099A91B20898FEF7B4FD2D
:1038A00008A8FFF719F80BE04046FFF77FFB18B9AF
:1038B0003CA1354800F04DFC02E04FF0FF3700BF5F
:1038C00000BFFEF755FC781C10B90CB0BDE8F081C4
:1038D0003A210798FCF78FFE0446002C36D0781C5E
:1038E000002833D0641C05E014F8012B28466D1C19
:1038F00002A90A542078302802DB20783928F3DD29
:10390000002002A9485502A8FCF768FE05462DA133
:103910000798FCF78CFE10B12D490D7016E02DA113
:103920000798FCF784FE10B12D490D700EE02DA113
:103930000798FCF77CFE10B12D490D8006E02DA103
:103940000798FCF774FE08B12D4805600F2E01D0D2
:10395000032E05D10698FCF7C0FC0798FCF7BDFCC8
:1039600000BFB2E7636D6469643A2025732C20724E
:1039700065713A2025732C207265715F6C656E3A13
:103980002025640D0A00000000380140546970735E
:103990003A0953656E6420436D64526573700D0A75
:1039A00000000000546970733A094D51545420507E
:1039B00075626C6973682053656E64204F4B0D0A05
:1039C000000000007761726E5F74656D700000002A
:1039D000340000207761726E5F68756D69000000C9
:1039E000350000207761726E5F736D6F67000000B5
:1039F000360000207761726E5F6C69676874000042
:103A00003800002030B5A5B00020219022902390EE
:103A10002490002400251BA1224800F09AFB80215D
:103A200001A8FCF7A8FE01A8FFF718FE0446002C29
:103A300026D021A803230022214600901AA0FFF7D8
:103A40000FFAC8B908E001A8415D229A501C2290E3
:103A500021988154681C05B2A542F4DB229A91B2E8
:103A60002198FEF7D1FC13A10E48229A00F071FBB9
:103A700021A8FEF731FF03E012A10A4800F069FB1C
:103A800025B030BD546970733A094F6E654E657448
:103A90005F53656E64446174612D4D5154540D0A39
:103AA00000000000003801403130343835393937F2
:103AB0003136000053656E642025642042797465B8
:103AC000730D0A005741524E3A094D5154545F4EFE
:103AD0006577427566666572204661696C65640D3E
:103AE0000A0000007047000029B1064AD26902436B
:103AF000044BDA6104E0034AD2698243014BDA6184
:103B0000704700000010024029B1064A9269024342
:103B1000044B9A6104E0034A92698243014B9A6123
:103B2000704700000010024030B500210022002440
:103B300000232D4D6D6805F00C0121B1042905D03D
:103B4000082923D105E0294D056022E0274D0560B5
:103B50001FE0254D6D6805F47012234D6D6805F466
:103B60008034022505EB92421CB9214D5543056076
:103B70000BE01D4D6D6805F400351DB11C4D55431E
:103B8000056002E0194D5543056002E0174D0560E0
:103B900000BF00BF144D6D6805F0F0010909154D17
:103BA0006B5C0568DD4045600F4D6D6805F4E061B4
:103BB000090A104D6B5C4568DD4085600A4D6D68F3
:103BC00005F46051C90A0B4D6B5C4568DD40C5606A
:103BD000054D6D6805F44041890B074D6B5CC56868
:103BE000B5FBF3F5056130BD0010024000127A000C
:103BF00000093D00140000202400002010B50446F8
:103C000024B120210448FEF71CFD03E020210248D6
:103C1000FEF715FD10BD00000008014010B5402161
:103C20000148FEF703FD10BD0008014008B5402023
:103C3000ADF8000003208DF8020048208DF8030045
:103C400069460248FEF71EFC08BD0000000801405E
:103C500010B5044624B140210448FEF7F2FC03E00D
:103C600040210248FEF7EBFC10BD000000080140B7
:103C700008B54020ADF8000003208DF802001020A8
:103C80008DF8030069460248FEF7FCFB08BD000002
:103C900000080140704710B500F002F810BD0000A8
:103CA0000CB50020019000903348006840F480304B
:103CB0003149086000BF3048006800F400300090CF
:103CC0000198401C0190009818B90198B0F5A06FB8
:103CD000F1D12948006800F4003010B101200090B3
:103CE00001E0002000900098012843D1234800689B
:103CF00040F01000214908600846006820F00300E9
:103D000008600846006840F0020008601A484068F1
:103D1000194948600846406848600846406840F4D1
:103D2000806048600846406820F47C10486008467F
:103D3000406840F4E81048600846006840F0807031
:103D4000086000BF0C48006800F000700028F9D03F
:103D50000948406820F00300074948600846406869
:103D600040F00200486000BF0348406800F00C00CB
:103D70000828F9D10CBD00000010024000200240CC
:103D800010B50446FEF7FDFC4620FEF7D7FC2046A2
:103D9000FEF7D4FCFEF709FD10BD042808D14FF052
:103DA000E021096941F004014FF0E022116107E0D0
:103DB0004FF0E021096921F004014FF0E022116188
:103DC0007047704710B51348006840F00100114972
:103DD000086008464068104908400E494860084697
:103DE00000680E4908400B4908600846006820F446
:103DF000802008600846406820F4FE0048604FF4C8
:103E00001F008860FFF747FF4FF00060044908601B
:103E100010BD0000001002400000FFF8FFFFF6FE9A
:103E200008ED00E010B540F225511D4800F0CAF839
:103E300010B31B4800F082F9C4B21A48008800F49D
:103E40000040C8B91748008800F4804060B10A2CCF
:103E500003D000201349088020E01248008840F475
:103E600000401049088019E00D2C06D10D4800884B
:103E700040F480400B49088010E00A480088C0F3F5
:103E80000D0009490C5407480088401C054908806A
:103E900008460088C72801DD0020088010BD00000A
:103EA00000380140400000204C00002010B540F2D6
:103EB00025511D4800F086F810B31B4800F03EF96C
:103EC000C4B21A48008800F40040C8B917480088F6
:103ED00000F4804060B10A2C03D000201349088010
:103EE00020E01248008840F400401049088019E0A2
:103EF0000D2C06D10D48008840F480400B49088005
:103F000010E00A480088C0F30D0009490C54074826
:103F10000088401C0549088008460088C72801DD44
:103F20000020088010BD0000004400404600002032
:103F30001401002010B540F225510E4800F042F85F
:103F4000B0B10D480088802802D300200A490880BB
:103F50000848001D0088C1B2074802880088401C3C
:103F6000054B1880054881542021024800F008F8CC
:103F700010BD00000048004048000020DC01002087
:103F800001F40072B2F5007F00D100BFCA43028085
:103F9000704721B1828942F40052828104E0828913
:103FA0004DF6FF731A408281704702460020B1F53A
:103FB000007F00D100BF13880B400BB1012000E04F
:103FC0000020704770B50246002400230025002021
:103FD00040F66A16B14200D100BFC1F3421501F0AC
:103FE0001F03012606FA03F3012D02D196893340FF
:103FF00006E0022D02D1168A334001E0968A334052
:104000000C12012606FA04F41688344013B10CB1E0
:10401000012000E0002070BDF0B50346002400261A
:104020000025002040F66A17B94200D100BF1846AB
:10403000C1F3421401F01F06012707FA06F5012C0F
:1040400001D10C3004E0022C01D1103000E014301A
:104050001AB107682F43076002E00768AF430760A3
:10406000F0BD00002DE9F04786B005460E4600245D
:10407000A24600BFA1460027B08900B100BF2F466D
:104080002C8A4CF6FF700440F08804432C82AC89E3
:104090004EF6F3100440B088318908437189084313
:1040A0000443AC81AC8A4FF6FF400440B08904431E
:1040B000AC8201A8FFF738FD1F48874202D1DDF826
:1040C00010A001E0DDF80CA0A88900F4004040B188
:1040D0000AEBCA0000EB0A1031684900B0FBF1F8A6
:1040E00007E00AEBCA0000EB0A1031688900B0FB58
:1040F000F1F86420B8FBF0F004012009642101FB11
:104100001089A88900F4004040B1322000EBC900BA
:10411000B0FBF1F000F00700044308E0322000EBB0
:1041200009106421B0FBF1F000F00F0004432C8172
:1041300006B0BDE8F08700000038014001468888DD
:10414000C0F308007047C1F308028280704700BFC7
:10415000FEE70FB430B5CBB0054601AC50A80090D7
:104160004FF4947101A8009B4F9AFCF7DDF80020F2
:1041700000900BE014F8011B2846FFF7E4FF00BF96
:1041800040212846FFF711FF0028F9D020780028A9
:10419000F0D14BB030BC5DF814FB2DE9F04107467F
:1041A0000C46154600260DE014F8011B3846FFF7B3
:1041B000CAFF00BF40213846FFF7F7FE0028F9D0BC
:1041C000701C86B2AE42EFDBBDE8F081490050EAD8
:1041D000C12018BF04204A0D18BF40F0010040F272
:1041E000FF72B2EB515F08BF40F00200012808BF28
:1041F0000520704730380A2801D20120704700207E
:104200007047000010B56FF00400FFF7C6FD0A48C4
:1042100000680A49B0FBF1F00949087008460078C7
:1042200000EB4001C1EBC0104FF6FF7101EAC00086
:104230000449088010BD00000000002000127A0030
:104240003C0000203E0000200146114A12884A43EB
:104250004FF0E0235A6100229A611A46126942F037
:1042600001021A6100BF4FF0E022106900F0010264
:104270001AB100F48032002AF5D04FF0E022126922
:1042800022F001024FF0E0231A6100229A61704788
:104290003E0000200146114A12784A434FF0E023C5
:1042A0005A6100229A611A46126942F001021A61AB
:1042B00000BF4FF0E022106900F001021AB100F4D3
:1042C0008032002AF5D04FF0E022126922F001027C
:1042D0004FF0E0231A6100229A6170473C000020F1
:1042E0001348007813490978884219DA124800788F
:1042F00012490978884213DA11480088114909885F
:1043000088420DDA1048006810490968884207D2CF
:1043100001200F49086000200E49C1F8BC0106E0E9
:1043200000200B49086001200A49C1F8BC01704710
:1043300028000020340000202A0000203500002042
:104340002C00002036000020300000203800002023
:10435000840121420000214290B000250024142154
:104360000BA8FCF708FA142106A8FCF704FA14219C
:1043700001A8FCF700FAFFF745FF4FF4A060FEF735
:104380009BFEFEF7C3FEFEF761FAFEF745FAFDF766
:10439000E9FDFEF75DF94FF4E13000F081F94FF4EB
:1043A000165000F0CDF94FF4E13000F01BFAFDF7A4
:1043B00033FEFEF78BFE46A200210846FEF7E0FF23
:1043C000FDF70CFFFEF782FE44A200210846FEF72F
:1043D000D7FF01204349086000204349C1F8840108
:1043E0004FF44870FFF730FF00203E49086001207D
:1043F0003D49C1F8840103E04FF4FA70FFF724FF50
:10440000FFF718F80028F7D1FEF760FE5EE0FEF730
:104410005DFE364B364A37493748FDF750FE354882
:1044200003783548027835A10BA8FBF797FF0BAA54
:1044300000210846FEF7A4FF2D48027832A106A805
:10444000FBF78CFF06AA02210020FEF799FF00F07F
:10445000D1F83049088030A204210020FEF790FFF7
:104460001020022300902B48028804212820FEF708
:1044700045FF00F097F82A490860084629A102681C
:1044800001A8FBF76BFF01AA06210020FEF778FFC9
:10449000681C80B205460A2808DB25A12948FFF7D9
:1044A00058FEFFF7AFFA0025FDF762FEFFF718FF91
:1044B00000F0ECF90020FDF769FE044614B1204637
:1044C000FFF7B6F942F21070FFF7BEFE9FE700005B
:1044D0004553503832363620000000004F4E454ECE
:1044E00045542000BC012142000021422B00002045
:1044F0002A000020290000202800002054656D704B
:104500003A25642E2564430048756D693A20256478
:10451000252500002C000020536D6F673A00000035
:10452000300000204C696768743A20256400000060
:104530004F6E654E65745F53656E64446174610DC2
:104540000A0000000038014010B5FEF71AF94720B4
:10455000FEF7F4F800240EE0FEF7ABF80A49085520
:10456000032C03D10120FEF7CBF802E00020FEF778
:10457000C7F8601CC4B2032CEEDBFEF716F9052069
:10458000FFF788FE10BD00004200002010B5024673
:10459000012000E050430B1EA1F10104E1B2F9D16A
:1045A00010BD00002DE9F0470120FFF7E9FB1020C6
:1045B000FFF7E6FBB420FFF747FEFFF7C5FF0B4808
:1045C0000478407800EB042084B2204600F0CFFB52
:1045D00007464FF03332064B00F044FA054600F030
:1045E00099FB1FFA80F94846BDE8F0874200002099
:1045F0003333F33F2DE9F04F9BB0002407E0072051
:10460000FEF7E4F802A921F81400601CC4B2322CB1
:10461000F5DB00241FE0601C00F0FF0916E002A893
:1046200030F8140002A931F8191088420ADD02A8F6
:1046300030F814B030F8190002A921F8140002A8CB
:1046400020F819B009F1010000F0FF09B9F1320FAB
:10465000E5DB601CC4B21B2CDDDBBDF83810BDF8F7
:104660003A20881800EBD071C1F34F0A504600F091
:104670007EFB07460022084B00F0F4F905460022B5
:10468000064B00F087FBCDE9000100F043FB80B250
:104690001BB0BDE8F08F00000000B04000A07440E7
:1046A00010B586B00446012144F20400FFF72CFA4D
:1046B0004FF40070ADF8140003208DF81600182098
:1046C0008DF8170005A91C48FDF7DCFE4FF480604B
:1046D000ADF8140004208DF8170005A91648FDF761
:1046E000D1FE25208DF8000003208DF801008DF803
:1046F000020001208DF803006846FEF7A5FC019436
:104700000020ADF80800ADF80A00ADF80C00ADF8D7
:1047100010000C20ADF80E0001A90848FFF7A2FC1C
:10472000012240F225510548FFF776FC012103489C
:10473000FFF72FFC06B010BD000801400038014013
:1047400010B586B0044601214804FFF7CDF90121D8
:104750000420FFF7D9F90420ADF8140003208DF8E8
:10476000160018208DF8170005A91C48FDF78AFED1
:104770000820ADF8140004208DF8170005A917488B
:10478000FDF780FE26208DF8000003208DF8010043
:104790008DF8020001208DF803006846FEF754FCF6
:1047A00001940020ADF80800ADF80A00ADF80C0047
:1047B000ADF810000C20ADF80E0001A90848FFF775
:1047C00051FC012240F225510548FFF725FC01214B
:1047D0000348FFF7DEFB06B010BD000000080140F3
:1047E0000044004010B586B0044601218804FFF75C
:1047F0007BF901210820FFF787F94FF48060ADF8BD
:10480000140003208DF8160018208DF8170005A954
:104810001C48FDF737FE4FF40060ADF8140004208B
:104820008DF8170005A91748FDF72CFE27208DF8F5
:10483000000000208DF801008DF8020001208DF8A5
:1048400003006846FEF700FC01940020ADF8080064
:10485000ADF80A00ADF80C00ADF810000C20ADF872
:104860000E0001A90848FFF7FDFB012240F2255187
:104870000548FFF7D1FB01210348FFF78AFB06B08B
:1048800010BD0000000C0140004800402DE9FE4F23
:104890004FF0000B002400253F48008800F4004042
:1048A00028B93E48008800F40040002872D03A48F9
:1048B0000088C0F30D0048B13748008800F4004874
:1048C000DFF8DC90374FDFF8D0A008E033480088ED
:1048D00000F40048DFF8D090344FDFF8C0A034A1D6
:1048E0004846FFF736FC00260CE0B95D4846FFF766
:1048F0002AFC00BF40214846FFF757FB0128F9D1A9
:10490000701C86B24645F0DB2EA14846FFF721FC1D
:104910003A213846FBF76FFE0446002C37D00BF1E6
:104920000100002833D0641C05E014F8012B284650
:104930006D1C0DF800202078302802DB2078392803
:10494000F3DD00200DF805006846FBF747FE05463D
:104950001EA13846FBF76BFE10B11F490D7016E023
:104960001EA13846FBF763FE10B11F490D700EE023
:104970001EA13846FBF75BFE10B11F490D8006E013
:104980001EA13846FBF753FE08B11F480560002002
:10499000AAF80000BDE8FE8F40000020460000207D
:1049A000003801404C000020004400401401002069
:1049B0000D0ACAD5B5BDB5C4D6B8C1EECEAA3A0D5A
:1049C0000A0000000D0A0D0A000000007761726EF7
:1049D0005F74656D70000000340000207761726EB6
:1049E0005F68756D69000000350000207761726EA8
:1049F0005F736D6F67000000360000207761726E94
:104A00005F6C6967687400003800002010B50029E9
:104A10000AD00878002807D005487844FCF7D6FD6E
:104A2000002801D0002010BD0248784410BD0000CD
:104A30008A0E0000820E000010B500290AD0087806
:104A4000002807D005487844FCF7C0FD002801D0B5
:104A5000002010BD0248784410BD00006E0F000019
:104A6000660F00002DE9C04130B4DFF8A0C23CEA77
:104A7000111418BF3CEA131400F0EC8081EA03051E
:104A80001CEA111444EAD57418BF1CEA131500F08F
:104A9000C780A4EB05044FF0004545EAC12145EA73
:104AA000C32341EA505143EA525304F17F749942BF
:104AB00004F500344FEAC0204FEAC22208BF9042FA
:104AC00000F09C804FEA13650FF24016765D4FEAC6
:104AD000134506FB05F7C7F1807706FB07F74FEA9A
:104AE000D737A7FB03687642C8F58038A7FB06CE08
:104AF00038BFA8F1010807FB08E64FF0000EA6FB3F
:104B0000028CE6FB03CEDCF1000CCEF1004E38BF88
:104B1000AEF1010EA6FB0C584FF000074FF0000558
:104B2000E6FB0E87A1FB08C6A0FB07CE16EB0E0620
:104B300045F10005E1FB076515F1E04E7EBFA4F5E8
:104B400080345FEA46066D4116F1800745F10005A5
:104B50004FEA17274FEA066647EA0567A6F1DE46E1
:104B6000B6F1805F4FEA15251FD9384624F0010CB5
:104B700005EBC471BCF1FE6F01EB0C1102D8F0BC67
:104B8000BDE8008124425CBF01F5801E9EEAC47F1F
:104B900002D4F0BCBDE80081244238D4F0BCA1F1BD
:104BA000C041BDE8004100F0EDB94FEAD22242EA2F
:104BB00043524FEAD323A7FB02864FEAD02040EAB4
:104BC000415007FB03661EEA0E0F4FEAD12105FB99
:104BD000026658BFA6EB0056B6EB00564FEA520EDF
:104BE0004EEAC37E18EB0E0E56EB530EBDD518EBF6
:104BF00002085E417F1C55F10005B6E74FF48015B1
:104C00004FF000074FF000064FF00008ADE7F0BC92
:104C10004FF0000001F1C04101F00041BDE800810A
:104C200011EA0C1F0CEA131500D00CE013EA0C1F5C
:104C300000F025804FF00000F0BC81EA030101F094
:104C40000041BDE80081F0BCBDE8004181EA0301FC
:104C500000F098B9F0BCBDE8004170B500F044F92F
:104C6000097EFC3E00F007B881EA03014FF0000026
:104C700001F00041704781EA030100F083B9F0BC04
:104C8000BDE800414FF0000021497047FFFDFBF9EE
:104C9000F7F5F4F2F0EEEDEBE9E8E6E4E3E1E0DE6F
:104CA000DDDBDAD8D7D5D4D3D1D0CFCDCCCBCAC8E1
:104CB000C7C6C5C4C2C1C0BFBEBDBCBBBAB9B8B708
:104CC000B6B5B4B3B2B1B0AFAEADACABAAA9A8A8FB
:104CD000A7A6A5A4A3A3A2A1A09F9F9E9D9C9C9BC9
:104CE0009A99999897979695959493939291919074
:104CF0008F8F8E8E8D8C8C8B8B8A89898888878705
:104D00008685858484838382828181800000FF0779
:104D10000000F87F4FEA1153A3F58063D3F11E031F
:104D2000A8BFD3F1200C08DB4FF0004242EAC122B9
:104D300052EA505232FA03F0704709420BD4102B5A
:104D4000C4BF0020704703F5787CBCF1FF3F05D05D
:104D50004FF0FF3070474FF00000704770B500F023
:104D6000C3F800BF4992248000207047F0E7B0FAF2
:104D700080F310FA03F10AD0C3F11D0303F5806339
:104D80004FEA41504FEA035202EBD12170474FF0F6
:104D900000007047DFF848C170B51CEA111E1EBF45
:104DA0001CEA13159EEA0C0F95EA0C0F00F06F80B9
:104DB00081EA030423EA4C134EEAD47E21EA4C1123
:104DC00041F4801143F48013AE44A1FB024CA0FBDC
:104DD0000365AEF17F7E361955EB0C05A1FB034C44
:104DE0004CF10003A0FB021C16EB0C06654153F1CD
:104DF0000003094218BF46F0010613F4007F0BD1EF
:104E00004FEA03314FEA0530340341EA155140EAD5
:104E100016506FF003020AE04FEAC3214FEAC520A3
:104E2000F40241EA555140EA56506FF0020202EB9B
:104E30002E4201EB025585EACE710AD05FEA440C9E
:104E400018BF24F0004450F1000041F1000120EAB5
:104E5000D47040F2FE7C624500D270BDA84214BFFF
:104E60004FF080444FF04044002E08BF0024BEF1B4
:104E7000806FA8BFA1F1C041BDE8704080F2828080
:104E80004FF0000001F1C04101F0004170479EEA7F
:104E90000C0F0CEA131518BF95EA0C0F06D04FF053
:104EA000000081EA030E0EF0004170BD00F01CF816
:104EB0008900013E00F007B800F009B84FEA430C42
:104EC0005FEA5C5C08D081EA030100F05BB84FEA5E
:104ED000410C5FEA5C5CF6D14FF00000014970477D
:104EE0000000FF070000F87F0EF1020E2EF0030E07
:104EF0005EF8046B364205D4012A43EB030515F531
:104F0000001F12D8012841EB010C1CF5001F0CD822
:104F10000ED14FEAD17C15F5001F0CEB4C0C0CF1B7
:104F2000020C08BF4CEBD37C04E04FF0080C01E00E
:104F30004FEAD37C0CEB4C0526FA05F606F0070683
:104F4000B6F1040C06D20EEB860CBDE870404CF0B6
:104F5000010C6047DFE80CF0090B02024FF0004142
:104F60004FF00000A1F5002170BD19461046012840
:104F700051EB010418BFD4F5001484BF002001F0E8
:104F8000004170BD0808A0F500114FEA31017047DB
:104F9000FCF71EB80000000000000000002F000019
:104FA00000000700070000147F147F1400242A7FEC
:104FB0002A1200626408132300364955225000006B
:104FC0000503000000001C224100000041221C00DB
:104FD0000014083E08140008083E0808000000A05D
:104FE0006000000808080808000060600000002059
:104FF00010080402003E5149453E0000427F400037
:10500000004261514946002141454B3100181412BC
:105010007F10002745454539003C4A494930000189
:105020007109050300364949493600064949291ED8
:10503000000036360000000056360000000814223A
:10504000410000141414141400004122140800023A
:105050000151090600324959513E007C1211127C5F
:10506000007F49494936003E41414122007F41418C
:10507000221C007F49494941007F09090901003E7E
:105080004149497A007F0808087F0000417F4100BC
:10509000002040413F01007F08142241007F404032
:1050A0004040007F020C027F007F0408107F003E1A
:1050B0004141413E007F09090906003E4151215E00
:1050C000007F091929460046494949310001017FFD
:1050D0000101003F4040403F001F2040201F003F93
:1050E0004038403F00631408146300070870080745
:1050F00000615149454300007F41410000552A5558
:105100002A55000041417F000004020102040040D2
:1051100040404040000001020400002054545478F4
:10512000007F484444380038444444200038444414
:10513000487F00385454541800087E0901020018B2
:10514000A4A4A47C007F080404780000447D4000EF
:10515000004080847D00007F102844000000417FD3
:105160004000007C04180478007C080404780038AF
:105170004444443800FC242424180018242418FC37
:10518000007C0804040800485454542000043F44A0
:105190004020003C4040207C001C2040201C003C63
:1051A0004030403C004428102844001CA0A0A07CB3
:1051B000004464544C4414141414141400000000EB
:1051C000000000000000000000000000000000F8E7
:1051D00000000000000000333000000000100C064A
:1051E000100C0600000000000000000040C07840E5
:1051F000C0784000043F04043F040400007088FCB1
:1052000008300000001820FF211E0000F008F00008
:10521000E018000000211C031E211E0000F0088879
:10522000700000001E2123241927211010160E00E3
:10523000000000000000000000000000000000E08E
:1052400018040200000000071820400000020418A3
:10525000E00000000040201807000000404080F0FF
:10526000804040000202010F01020200000000F035
:10527000000000000101011F010101000000000009
:105280000000000080B0700000000000000000007E
:105290000000000000010101010101010000000007
:1052A000000000000030300000000000000000009E
:1052B00080601804006018060100000000E010087B
:1052C0000810E000000F102020100F00001010F850
:1052D000000000000020203F20200000007008088F
:1052E000088870000030282422213000003008880F
:1052F000884830000018202020110E000000C02037
:1053000010F8000000070424243F240000F8088857
:10531000880808000019212020110E0000E01088E4
:1053200088180000000F112020110E000038080816
:10533000C83808000000003F000000000070880826
:1053400008887000001C222121221C0000E01008A7
:105350000810E0000000312222110F00000000C000
:10536000C00000000000003030000000000000809D
:10537000000000000000806000000000000080408D
:1053800020100800000102040810200040404040A6
:1053900040404000040404040404040000081020F9
:1053A000408000000020100804020100007048083E
:1053B0000808F0000000003036010000C030C828A6
:1053C000E810E0000718272423140B000000C03861
:1053D000E0000000203C23020227382008F88888DB
:1053E00088700000203F202020110E00C0300808E7
:1053F00008083800071820202010080008F80808BE
:105400000810E000203F202020100F0008F88888B6
:10541000E8081000203F20202320180008F8888882
:10542000E8081000203F200003000000C0300808FA
:105430000838000007182020221E020008F8080083
:105440000008F808203F210101213F20000808F84A
:10545000080800000020203F20200000000008086D
:10546000F8080800C08080807F00000008F888C02D
:1054700028180800203F20012638200008F80800DE
:1054800000000000203F20202020300008F8F80015
:10549000F8F80800203F003F003F200008F830C027
:1054A0000008F808203F200007183F00E010080817
:1054B0000810E0000F10202020100F0008F8080846
:1054C0000808F000203F210101010000E010080859
:1054D0000810E0000F18242438504F0008F888887E
:1054E00088887000203F2000030C3020007088085E
:1054F000080838000038202121221C00180808F86C
:10550000080818000000203F2000000008F80800EC
:105510000008F808001F202020201F0008788800BD
:1055200000C83808000007380E010000F80800F82D
:105530000008F800033C0700073C030008186880D7
:105540008068180820302C03032C30200838C8004D
:10555000C83808000000203F20000000100808089C
:10556000C83808002038262120201800000000FE3E
:10557000020202000000007F40404000000C30C0EA
:1055800000000000000000010638C0000002020216
:10559000FE000000004040407F00000000000402C8
:1055A00002020400000000000000000000000000F3
:1055B00000000000808080808080808000020204E3
:1055C00000000000000000000000000000008080DB
:1055D000808000000019242222223F2008F8008049
:1055E00080000000003F112020110E00000000800C
:1055F00080800000000E112020201100000000809B
:105600008088F800000E112020103F2000008080CC
:1056100080800000001F222222221300008080F0E0
:10562000888888180020203F20200000000080800B
:1056300080808000006B94949493600008F8008050
:1056400080800000203F210000203F2000809898AB
:10565000000000000020203F20200000000000800B
:105660009898000000C08080807F000008F800004B
:1056700080808000203F24022D302000000808F8A0
:10568000000000000020203F20200000808080805B
:1056900080808000203F20003F20003F80800080ED
:1056A00080800000203F210000203F2000008080FB
:1056B00080800000001F202020201F0080800080AC
:1056C0008000000080FFA12020110E00000000805B
:1056D00080808000000E112020A0FF80808080004C
:1056E0008080800020203F21200001000000808079
:1056F000808080000033242424241900008080E06E
:10570000808000000000001F20200000808000003A
:1057100000808000001F202020103F20808080001B
:105720000080808000010E3008060100808000802B
:10573000008080800F300C030C300F000080800050
:10574000808080000020312E0E312000808080007B
:105750000080808080818E7018060100008080802B
:10576000808080000021302C2221300000000000C9
:10577000807C020200000000003F4040000000006A
:10578000FF00000000000000FF0000000002027C9B
:10579000800000000040403F0000000000060101C2
:1057A00002020404000000000000000004000008E1
:1057B00000000000000000020001000010000000D6
:1057C000000000000000000030313233343536373D
:1057D0003839414243444546403058003031323335
:1057E0003435363738396162636465664030780035
:1057F00002400000000000A0000000000540000082
:10580000000000C8000000000C4000000000409CA8
:1058100000000000194000000020BCBE0000000095
:1058200034400000BFC91B8E00000004B5400000DA
:10583000504BCFD06607E2CF010000006C41000062
:105840003E8251AADFEEA73401000000D9420000D9
:10585000DCB5A0E23A301F97FFFFFFFFB445000020
:10586000FD25A0C8E9A3C14FFFFFFFFFFF3F0000D8
:105870000000008000000000FF3F000000000080EA
:1058800000000000D0590008000000204C0000007B
:10589000280100081C5A00084C0000207408000071
:1058A000440100081001000043000000F8FFFFFF62
:1058B0000040404040404040404041414141414023
:1058C00040404040404040404040404040404040D8
:1058D0004005020202020202020202020202020267
:1058E000022020202020202020202002020202026C
:1058F00002029090909090901010101010101010C4
:1059000010101010101010101010101002020202CF
:105910000202888888888888080808080808080813
:10592000080808080808080808080808020202020F
:105930004000000000000000000000000000000027
:105940000000000000000000000000000000000057
:105950000000000000000000000000000000000047
:105960000000000000000000000000000000000037
:105970000000000000000000000000000000000027
:105980000000000000000000000000000000000017
:105990000000000000000000000000000000000007
:1059A00000000000000000000000000000000000F7
:1059B000000000001C00000043000000F8FFFFFF93
:1059C0000C0000000E0000000F0000002E00000080
:1059D00000A24A04000000000000000001020304CD
:1059E0000607080900000000010203040102030485
:1059F0000607080902040608000000000000000075
:105A000000000000283C5000F401000000000000ED
:0C5A10000000000000000000000000008A
:04000005080000ED02
:00000001FF
